{
  "contractName": "ECTools",
  "abi": [
    {
      "constant": true,
      "inputs": [
        {
          "name": "originalMessage",
          "type": "bytes32"
        },
        {
          "name": "signedMessage",
          "type": "bytes"
        }
      ],
      "name": "recover",
      "outputs": [
        {
          "name": "",
          "type": "address"
        }
      ],
      "payable": false,
      "stateMutability": "pure",
      "type": "function"
    },
    {
      "constant": true,
      "inputs": [
        {
          "name": "_msg",
          "type": "bytes32"
        }
      ],
      "name": "toEthereumSignedMessage",
      "outputs": [
        {
          "name": "",
          "type": "bytes32"
        }
      ],
      "payable": false,
      "stateMutability": "pure",
      "type": "function"
    },
    {
      "constant": true,
      "inputs": [
        {
          "name": "_msg",
          "type": "bytes32"
        },
        {
          "name": "sig",
          "type": "bytes"
        }
      ],
      "name": "prefixedRecover",
      "outputs": [
        {
          "name": "",
          "type": "address"
        }
      ],
      "payable": false,
      "stateMutability": "pure",
      "type": "function"
    }
  ],
  "bytecode": "0x6104aa610030600b82828239805160001a6073146000811461002057610022565bfe5b5030600052607381538281f3fe7300000000000000000000000000000000000000003014608060405260043610610068576000357c01000000000000000000000000000000000000000000000000000000009004806319045a251461006d578063380388f114610172578063fc960e1514610277575b600080fd5b6101306004803603604081101561008357600080fd5b8101908080359060200190929190803590602001906401000000008111156100aa57600080fd5b8201836020820111156100bc57600080fd5b803590602001918460018302840111640100000000831117156100de57600080fd5b91908080601f016020809104026020016040519081016040528093929190818152602001838380828437600081840152601f19601f8201169050808301925050505050505091929192905050506102b9565b604051808273ffffffffffffffffffffffffffffffffffffffff1673ffffffffffffffffffffffffffffffffffffffff16815260200191505060405180910390f35b6102356004803603604081101561018857600080fd5b8101908080359060200190929190803590602001906401000000008111156101af57600080fd5b8201836020820111156101c157600080fd5b803590602001918460018302840111640100000000831117156101e357600080fd5b91908080601f016020809104026020016040519081016040528093929190818152602001838380828437600081840152601f19601f82011690508083019250505050505050919291929050505061039d565b604051808273ffffffffffffffffffffffffffffffffffffffff1673ffffffffffffffffffffffffffffffffffffffff16815260200191505060405180910390f35b6102a36004803603602081101561028d57600080fd5b81019080803590602001909291905050506103be565b6040518082815260200191505060405180910390f35b600080600080604185511415156102d65760009350505050610397565b6020850151925060408501519150606085015160001a9050601b8160ff16101561030157601b810190505b601b8160ff16141580156103195750601c8160ff1614155b1561032a5760009350505050610397565b60018682858560405160008152602001604052604051808581526020018460ff1660ff1681526020018381526020018281526020019450505050506020604051602081039080840390855afa158015610387573d6000803e3d6000fd5b5050506020604051035193505050505b92915050565b6000806103a9846103be565b90506103b581846102b9565b91505092915050565b600060606040805190810160405280601c81526020017f19457468657265756d205369676e6564204d6573736167653a0a333200000000815250905080836040516020018083805190602001908083835b602083101515610434578051825260208201915060208101905060208303925061040f565b6001836020036101000a038019825116818451168082178552505050505050905001828152602001925050506040516020818303038152906040528051906020012091505091905056fea165627a7a723058204e54a79a381494a894448ec375f7bee725dc5664a8fcd53f45db081be797a2850029",
  "source": "pragma solidity 0.5.1;\n\nlibrary ECTools {\n\n  /**\n   * @dev Recover signer address from a message by using his signature\n   * @param originalMessage bytes32 message, the originalMessage is the signed message. What is recovered is the signer address.\n   * @param signedMessage bytes signature\n   */\n    function recover(bytes32 originalMessage, bytes memory signedMessage) public pure returns (address) {\n        bytes32 r;\n        bytes32 s;\n        uint8 v;\n\n        //Check the signature length\n        if (signedMessage.length != 65) {\n            return (address(0));\n        }\n\n        // Divide the signature in r, s and v variables\n        assembly {\n            r := mload(add(signedMessage, 32))\n            s := mload(add(signedMessage, 64))\n            v := byte(0, mload(add(signedMessage, 96)))\n        }\n\n        // Version of signature should be 27 or 28, but 0 and 1 are also possible versions\n        if (v < 27) {\n            v += 27;\n        }\n\n        // If the version is correct return the signer address\n        if (v != 27 && v != 28) {\n            return (address(0));\n        } else {\n            return ecrecover(originalMessage, v, r, s);\n        }\n    }\n\n    function toEthereumSignedMessage(bytes32 _msg) public pure returns (bytes32) {\n        bytes memory prefix = \"\\x19Ethereum Signed Message:\\n32\";\n        return keccak256(abi.encodePacked(prefix, _msg));\n    }\n\n    function prefixedRecover(bytes32 _msg, bytes memory sig) public pure returns (address) {\n        bytes32 ethSignedMsg = toEthereumSignedMessage(_msg);\n        return recover(ethSignedMsg, sig);\n    }\n}",
  "sourcePath": "contracts/ECTools.sol",
  "compiler": {
    "name": "solc",
    "version": "0.5.1+commit.c8a2cb62.Emscripten.clang"
  },
  "schemaVersion": "1.1.1",
  "updatedAt": "2019-04-24T11:55:12.923Z"
}