{
  "contractName": "Escrow_V2",
  "abi": [
    {
      "constant": true,
      "inputs": [],
      "name": "tokenContract",
      "outputs": [
        {
          "name": "",
          "type": "address"
        }
      ],
      "payable": false,
      "stateMutability": "view",
      "type": "function"
    },
    {
      "constant": true,
      "inputs": [
        {
          "name": "",
          "type": "uint256"
        }
      ],
      "name": "usedNonces",
      "outputs": [
        {
          "name": "",
          "type": "bool"
        }
      ],
      "payable": false,
      "stateMutability": "view",
      "type": "function"
    },
    {
      "constant": true,
      "inputs": [],
      "name": "RELAYED_PAYMENT_FUND_FUNCTION_CALL_GAS_USED",
      "outputs": [
        {
          "name": "",
          "type": "uint256"
        }
      ],
      "payable": false,
      "stateMutability": "view",
      "type": "function"
    },
    {
      "constant": true,
      "inputs": [
        {
          "name": "",
          "type": "address"
        }
      ],
      "name": "signers",
      "outputs": [
        {
          "name": "",
          "type": "bool"
        }
      ],
      "payable": false,
      "stateMutability": "view",
      "type": "function"
    },
    {
      "constant": true,
      "inputs": [],
      "name": "FIAT_PAYMENT_FUND_FUNCTION_CALL_GAS_USED",
      "outputs": [
        {
          "name": "",
          "type": "uint256"
        }
      ],
      "payable": false,
      "stateMutability": "view",
      "type": "function"
    },
    {
      "constant": true,
      "inputs": [],
      "name": "REFUNDING_LOGIC_GAS_COST",
      "outputs": [
        {
          "name": "",
          "type": "uint256"
        }
      ],
      "payable": false,
      "stateMutability": "view",
      "type": "function"
    },
    {
      "constant": true,
      "inputs": [],
      "name": "dAppAdmin",
      "outputs": [
        {
          "name": "",
          "type": "address"
        }
      ],
      "payable": false,
      "stateMutability": "view",
      "type": "function"
    },
    {
      "inputs": [
        {
          "name": "tokenAddress",
          "type": "address"
        },
        {
          "name": "_dAppAdmin",
          "type": "address"
        }
      ],
      "payable": false,
      "stateMutability": "nonpayable",
      "type": "constructor"
    },
    {
      "payable": true,
      "stateMutability": "payable",
      "type": "fallback"
    },
    {
      "constant": false,
      "inputs": [
        {
          "name": "nonce",
          "type": "uint256"
        },
        {
          "name": "addressToFund",
          "type": "address"
        },
        {
          "name": "weiAmount",
          "type": "uint256"
        },
        {
          "name": "authorizationSignature",
          "type": "bytes"
        }
      ],
      "name": "fundForRelayedPayment",
      "outputs": [],
      "payable": false,
      "stateMutability": "nonpayable",
      "type": "function"
    },
    {
      "constant": false,
      "inputs": [
        {
          "name": "nonce",
          "type": "uint256"
        },
        {
          "name": "addressToFund",
          "type": "address"
        },
        {
          "name": "tokenAmount",
          "type": "uint256"
        },
        {
          "name": "weiAmount",
          "type": "uint256"
        },
        {
          "name": "authorizationSignature",
          "type": "bytes"
        }
      ],
      "name": "fundForFiatPayment",
      "outputs": [],
      "payable": false,
      "stateMutability": "nonpayable",
      "type": "function"
    },
    {
      "constant": true,
      "inputs": [
        {
          "name": "raw",
          "type": "bytes32"
        },
        {
          "name": "sig",
          "type": "bytes"
        }
      ],
      "name": "getSigner",
      "outputs": [
        {
          "name": "signer",
          "type": "address"
        }
      ],
      "payable": false,
      "stateMutability": "pure",
      "type": "function"
    },
    {
      "constant": false,
      "inputs": [
        {
          "name": "ethersAmount",
          "type": "uint256"
        }
      ],
      "name": "withdrawEthers",
      "outputs": [],
      "payable": false,
      "stateMutability": "nonpayable",
      "type": "function"
    },
    {
      "constant": false,
      "inputs": [
        {
          "name": "tokensAmount",
          "type": "uint256"
        }
      ],
      "name": "withdrawTokens",
      "outputs": [],
      "payable": false,
      "stateMutability": "nonpayable",
      "type": "function"
    },
    {
      "constant": false,
      "inputs": [
        {
          "name": "_newSigner",
          "type": "address"
        },
        {
          "name": "add",
          "type": "bool"
        }
      ],
      "name": "editSigner",
      "outputs": [],
      "payable": false,
      "stateMutability": "nonpayable",
      "type": "function"
    },
    {
      "constant": false,
      "inputs": [
        {
          "name": "_dAppAdmin",
          "type": "address"
        }
      ],
      "name": "editDappAdmin",
      "outputs": [],
      "payable": false,
      "stateMutability": "nonpayable",
      "type": "function"
    }
  ],
  "bytecode": "0x608060405234801561001057600080fd5b506040516040806115c98339810180604052604081101561003057600080fd5b81019080805190602001909291908051906020019092919050505080600360006101000a81548173ffffffffffffffffffffffffffffffffffffffff021916908373ffffffffffffffffffffffffffffffffffffffff160217905550816000806101000a81548173ffffffffffffffffffffffffffffffffffffffff021916908373ffffffffffffffffffffffffffffffffffffffff16021790555050506114ec806100dd6000396000f3fe6080604052600436106100ca576000357c0100000000000000000000000000000000000000000000000000000000900480632a7ec130146100cc578063315a095d146101d257806347bae6f51461020d5780634940f8b61461026a57806355a373d6146103665780636717e41c146103bd5780636744788614610410578063736c0d5b1461043b5780637d09e992146104a45780638ad3308e146104cf578063cbdee55114610520578063f42067061461054b578063f69741a314610586578063f7b2ec0d146105dd575b005b3480156100d857600080fd5b506101d0600480360360a08110156100ef57600080fd5b8101908080359060200190929190803573ffffffffffffffffffffffffffffffffffffffff16906020019092919080359060200190929190803590602001909291908035906020019064010000000081111561014a57600080fd5b82018360208201111561015c57600080fd5b8035906020019184600183028401116401000000008311171561017e57600080fd5b91908080601f016020809104026020016040519081016040528093929190818152602001838380828437600081840152601f19601f8201169050808301925050505050505091929192905050506106ef565b005b3480156101de57600080fd5b5061020b600480360360208110156101f557600080fd5b81019080803590602001909291905050506109c5565b005b34801561021957600080fd5b506102686004803603604081101561023057600080fd5b81019080803573ffffffffffffffffffffffffffffffffffffffff169060200190929190803515159060200190929190505050610baf565b005b34801561027657600080fd5b506103646004803603608081101561028d57600080fd5b8101908080359060200190929190803573ffffffffffffffffffffffffffffffffffffffff16906020019092919080359060200190929190803590602001906401000000008111156102de57600080fd5b8201836020820111156102f057600080fd5b8035906020019184600183028401116401000000008311171561031257600080fd5b91908080601f016020809104026020016040519081016040528093929190818152602001838380828437600081840152601f19601f820116905080830192505050505050509192919290505050610ccf565b005b34801561037257600080fd5b5061037b610e9c565b604051808273ffffffffffffffffffffffffffffffffffffffff1673ffffffffffffffffffffffffffffffffffffffff16815260200191505060405180910390f35b3480156103c957600080fd5b506103f6600480360360208110156103e057600080fd5b8101908080359060200190929190505050610ec1565b604051808215151515815260200191505060405180910390f35b34801561041c57600080fd5b50610425610ee1565b6040518082815260200191505060405180910390f35b34801561044757600080fd5b5061048a6004803603602081101561045e57600080fd5b81019080803573ffffffffffffffffffffffffffffffffffffffff169060200190929190505050610ee7565b604051808215151515815260200191505060405180910390f35b3480156104b057600080fd5b506104b9610f07565b6040518082815260200191505060405180910390f35b3480156104db57600080fd5b5061051e600480360360208110156104f257600080fd5b81019080803573ffffffffffffffffffffffffffffffffffffffff169060200190929190505050610f0d565b005b34801561052c57600080fd5b50610535611016565b6040518082815260200191505060405180910390f35b34801561055757600080fd5b506105846004803603602081101561056e57600080fd5b810190808035906020019092919050505061101c565b005b34801561059257600080fd5b5061059b61114d565b604051808273ffffffffffffffffffffffffffffffffffffffff1673ffffffffffffffffffffffffffffffffffffffff16815260200191505060405180910390f35b3480156105e957600080fd5b506106ad6004803603604081101561060057600080fd5b81019080803590602001909291908035906020019064010000000081111561062757600080fd5b82018360208201111561063957600080fd5b8035906020019184600183028401116401000000008311171561065b57600080fd5b91908080601f016020809104026020016040519081016040528093929190818152602001838380828437600081840152601f19601f820116905080830192505050505050509192919290505050611173565b604051808273ffffffffffffffffffffffffffffffffffffffff1673ffffffffffffffffffffffffffffffffffffffff16815260200191505060405180910390f35b846002600082815260200190815260200160002060009054906101000a900460ff16151515610786576040517f08c379a00000000000000000000000000000000000000000000000000000000081526004018080602001828103825260128152602001807f4e6f6e636520616c72656164792075736564000000000000000000000000000081525060200191505060405180910390fd5b600061079d617de75a61129090919063ffffffff16565b905060008730888888604051602001808681526020018573ffffffffffffffffffffffffffffffffffffffff1673ffffffffffffffffffffffffffffffffffffffff166c010000000000000000000000000281526014018473ffffffffffffffffffffffffffffffffffffffff1673ffffffffffffffffffffffffffffffffffffffff166c010000000000000000000000000281526014018381526020018281526020019550505050505060405160208183030381529060405280519060200120905061086b81858a6112b1565b6000809054906101000a900473ffffffffffffffffffffffffffffffffffffffff1673ffffffffffffffffffffffffffffffffffffffff1663a9059cbb88886040518363ffffffff167c0100000000000000000000000000000000000000000000000000000000028152600401808373ffffffffffffffffffffffffffffffffffffffff1673ffffffffffffffffffffffffffffffffffffffff16815260200182815260200192505050602060405180830381600087803b15801561092f57600080fd5b505af1158015610943573d6000803e3d6000fd5b505050506040513d602081101561095957600080fd5b8101908080519060200190929190505050508673ffffffffffffffffffffffffffffffffffffffff166108fc869081150290604051600060405180830381858888f193505050501580156109b1573d6000803e3d6000fd5b506109bb826113d8565b5050505050505050565b600360009054906101000a900473ffffffffffffffffffffffffffffffffffffffff1673ffffffffffffffffffffffffffffffffffffffff163373ffffffffffffffffffffffffffffffffffffffff16141515610a8a576040517f08c379a00000000000000000000000000000000000000000000000000000000081526004018080602001828103825260138152602001807f556e617574686f72697a6564206163636573730000000000000000000000000081525060200191505060405180910390fd5b6000809054906101000a900473ffffffffffffffffffffffffffffffffffffffff1673ffffffffffffffffffffffffffffffffffffffff1663a9059cbb600360009054906101000a900473ffffffffffffffffffffffffffffffffffffffff16836040518363ffffffff167c0100000000000000000000000000000000000000000000000000000000028152600401808373ffffffffffffffffffffffffffffffffffffffff1673ffffffffffffffffffffffffffffffffffffffff16815260200182815260200192505050602060405180830381600087803b158015610b7057600080fd5b505af1158015610b84573d6000803e3d6000fd5b505050506040513d6020811015610b9a57600080fd5b81019080805190602001909291905050505050565b600360009054906101000a900473ffffffffffffffffffffffffffffffffffffffff1673ffffffffffffffffffffffffffffffffffffffff163373ffffffffffffffffffffffffffffffffffffffff16141515610c74576040517f08c379a00000000000000000000000000000000000000000000000000000000081526004018080602001828103825260138152602001807f556e617574686f72697a6564206163636573730000000000000000000000000081525060200191505060405180910390fd5b80600160008473ffffffffffffffffffffffffffffffffffffffff1673ffffffffffffffffffffffffffffffffffffffff16815260200190815260200160002060006101000a81548160ff0219169083151502179055505050565b836002600082815260200190815260200160002060009054906101000a900460ff16151515610d66576040517f08c379a00000000000000000000000000000000000000000000000000000000081526004018080602001828103825260128152602001807f4e6f6e636520616c72656164792075736564000000000000000000000000000081525060200191505060405180910390fd5b6000610d7d617b4c5a61129090919063ffffffff16565b9050600086308787604051602001808581526020018473ffffffffffffffffffffffffffffffffffffffff1673ffffffffffffffffffffffffffffffffffffffff166c010000000000000000000000000281526014018373ffffffffffffffffffffffffffffffffffffffff1673ffffffffffffffffffffffffffffffffffffffff166c01000000000000000000000000028152601401828152602001945050505050604051602081830303815290604052805190602001209050610e438185896112b1565b8573ffffffffffffffffffffffffffffffffffffffff166108fc869081150290604051600060405180830381858888f19350505050158015610e89573d6000803e3d6000fd5b50610e93826113d8565b50505050505050565b6000809054906101000a900473ffffffffffffffffffffffffffffffffffffffff1681565b60026020528060005260406000206000915054906101000a900460ff1681565b617b4c81565b60016020528060005260406000206000915054906101000a900460ff1681565b617de781565b600360009054906101000a900473ffffffffffffffffffffffffffffffffffffffff1673ffffffffffffffffffffffffffffffffffffffff163373ffffffffffffffffffffffffffffffffffffffff16141515610fd2576040517f08c379a00000000000000000000000000000000000000000000000000000000081526004018080602001828103825260138152602001807f556e617574686f72697a6564206163636573730000000000000000000000000081525060200191505060405180910390fd5b80600360006101000a81548173ffffffffffffffffffffffffffffffffffffffff021916908373ffffffffffffffffffffffffffffffffffffffff16021790555050565b611edd81565b600360009054906101000a900473ffffffffffffffffffffffffffffffffffffffff1673ffffffffffffffffffffffffffffffffffffffff163373ffffffffffffffffffffffffffffffffffffffff161415156110e1576040517f08c379a00000000000000000000000000000000000000000000000000000000081526004018080602001828103825260138152602001807f556e617574686f72697a6564206163636573730000000000000000000000000081525060200191505060405180910390fd5b600360009054906101000a900473ffffffffffffffffffffffffffffffffffffffff1673ffffffffffffffffffffffffffffffffffffffff166108fc829081150290604051600060405180830381858888f19350505050158015611149573d6000803e3d6000fd5b5050565b600360009054906101000a900473ffffffffffffffffffffffffffffffffffffffff1681565b600073__ECTools_______________________________63380388f184846040518363ffffffff167c01000000000000000000000000000000000000000000000000000000000281526004018083815260200180602001828103825283818151815260200191508051906020019080838360005b838110156112025780820151818401526020810190506111e7565b50505050905090810190601f16801561122f5780820380516001836020036101000a031916815260200191505b50935050505060206040518083038186803b15801561124d57600080fd5b505af4158015611261573d6000803e3d6000fd5b505050506040513d602081101561127757600080fd5b8101908080519060200190929190505050905092915050565b60008082840190508381101515156112a757600080fd5b8091505092915050565b60006112bd8484611173565b9050600160008273ffffffffffffffffffffffffffffffffffffffff1673ffffffffffffffffffffffffffffffffffffffff16815260200190815260200160002060009054906101000a900460ff1615156113a6576040517f08c379a00000000000000000000000000000000000000000000000000000000081526004018080602001828103825260298152602001807f496e76616c696420617574686f72697a6174696f6e207369676e61747572652081526020017f6f72207369676e6572000000000000000000000000000000000000000000000081525060400191505060405180910390fd5b60016002600084815260200190815260200160002060006101000a81548160ff02191690831515021790555050505050565b60006114133a611405611edd6113f75a8761146090919063ffffffff16565b61129090919063ffffffff16565b61148290919063ffffffff16565b90503373ffffffffffffffffffffffffffffffffffffffff166108fc829081150290604051600060405180830381858888f1935050505015801561145b573d6000803e3d6000fd5b505050565b600082821115151561147157600080fd5b600082840390508091505092915050565b60008083141561149557600090506114ba565b600082840290508284828115156114a857fe5b041415156114b557600080fd5b809150505b9291505056fea165627a7a723058208aaace7d8c1775c4a1359281efa21a4f080916bc9384fecf07261842b4dd14e10029",
  "source": "pragma solidity 0.5.1;\n\nimport \"./ECTools.sol\";\nimport \"openzeppelin-solidity/contracts/math/SafeMath.sol\";\nimport \"openzeppelin-solidity/contracts/token/ERC20/ERC20.sol\";\n\n/**\n * Escrow_V2 is deprecated and currently it is not used in production \n */\ncontract Escrow_V2 {\n    using SafeMath for uint256;\n\n    ERC20 public tokenContract;\n\n    mapping (address => bool) public signers;\n    mapping (uint256 => bool) public usedNonces;\n\n    address payable public dAppAdmin;\n    uint256 constant public REFUNDING_LOGIC_GAS_COST = 7901; // gas used for single refund \n\n    uint256 constant public FIAT_PAYMENT_FUND_FUNCTION_CALL_GAS_USED = 32231; // gas used for calling fundForFiatPayment\n    uint256 constant public RELAYED_PAYMENT_FUND_FUNCTION_CALL_GAS_USED = 31564; // gas used for calling fundForRelayedPayment\n\n    modifier onlyDAppAdmin() {\n        require(msg.sender == dAppAdmin, \"Unauthorized access\"); \n        _;\n    }\n\n    modifier preValidateFund(uint256 nonce) {\n        require(!usedNonces[nonce], \"Nonce already used\");\n        _;\n    }\n\n    constructor(address tokenAddress, address payable _dAppAdmin) public {\n        dAppAdmin = _dAppAdmin;   \n        tokenContract = ERC20(tokenAddress); \n    }\n   \n    function fundForRelayedPayment(uint256 nonce, address payable addressToFund, uint256 weiAmount, bytes memory authorizationSignature) public\n    preValidateFund(nonce)\n    {\n        uint256 gasLimit = gasleft().add(RELAYED_PAYMENT_FUND_FUNCTION_CALL_GAS_USED);\n        \n        bytes32 hashedParameters = keccak256(abi.encodePacked(nonce, address(this), addressToFund, weiAmount));\n        _preFund(hashedParameters, authorizationSignature, nonce);\n\n        addressToFund.transfer(weiAmount);\n\n        _refundMsgSender(gasLimit);\n    }\n\n    function fundForFiatPayment(uint256 nonce, address payable addressToFund, uint256 tokenAmount, uint256 weiAmount, bytes memory authorizationSignature) public\n    preValidateFund(nonce)\n    {\n        uint256 gasLimit = gasleft().add(FIAT_PAYMENT_FUND_FUNCTION_CALL_GAS_USED);\n\n        bytes32 hashedParameters = keccak256(abi.encodePacked(nonce, address(this), addressToFund, tokenAmount, weiAmount));\n        _preFund(hashedParameters, authorizationSignature, nonce);\n\n        tokenContract.transfer(addressToFund, tokenAmount);\n        addressToFund.transfer(weiAmount);\n\n        _refundMsgSender(gasLimit);\n    }\n\n    function _preFund(bytes32 hashedParameters, bytes memory authorizationSignature, uint256 nonce) internal {\n        address signer = getSigner(hashedParameters, authorizationSignature);\n        require(signers[signer], \"Invalid authorization signature or signer\");\n        \n        usedNonces[nonce] = true;\n    }\n\n    function getSigner(bytes32 raw, bytes memory sig) public pure returns(address signer) {\n        return ECTools.prefixedRecover(raw, sig);\n    }\n\n    function _refundMsgSender(uint256 gasLimit) internal {\n        uint256 refundAmount = gasLimit.sub(gasleft()).add(REFUNDING_LOGIC_GAS_COST).mul(tx.gasprice);\n        msg.sender.transfer(refundAmount);\n    }\n\n    function withdrawEthers(uint256 ethersAmount) public onlyDAppAdmin {\n        dAppAdmin.transfer(ethersAmount);\n    }\n\n    function withdrawTokens(uint256 tokensAmount) public onlyDAppAdmin {\n        tokenContract.transfer(dAppAdmin, tokensAmount);\n    }\n\n    function editSigner(address _newSigner, bool add) public onlyDAppAdmin {\n        signers[_newSigner] = add;\n    }\n\n    function editDappAdmin (address payable _dAppAdmin) public onlyDAppAdmin {\n        dAppAdmin = _dAppAdmin;\n    }\n\n    function() external payable {}\n}",
  "sourcePath": "contracts/Escrow_V2.sol",
  "compiler": {
    "name": "solc",
    "version": "0.5.1+commit.c8a2cb62.Emscripten.clang"
  },
  "schemaVersion": "1.1.1",
  "updatedAt": "2019-04-24T11:55:12.930Z"
}