{
  "contractName": "Escrow_V3",
  "abi": [
    {
      "constant": true,
      "inputs": [],
      "name": "tokenContract",
      "outputs": [
        {
          "name": "",
          "type": "address"
        }
      ],
      "payable": false,
      "stateMutability": "view",
      "type": "function"
    },
    {
      "constant": true,
      "inputs": [
        {
          "name": "",
          "type": "uint256"
        }
      ],
      "name": "usedNonces",
      "outputs": [
        {
          "name": "",
          "type": "bool"
        }
      ],
      "payable": false,
      "stateMutability": "view",
      "type": "function"
    },
    {
      "constant": true,
      "inputs": [],
      "name": "RELAYED_PAYMENT_FUND_FUNCTION_CALL_GAS_USED",
      "outputs": [
        {
          "name": "",
          "type": "uint256"
        }
      ],
      "payable": false,
      "stateMutability": "view",
      "type": "function"
    },
    {
      "constant": true,
      "inputs": [
        {
          "name": "",
          "type": "address"
        }
      ],
      "name": "signers",
      "outputs": [
        {
          "name": "",
          "type": "bool"
        }
      ],
      "payable": false,
      "stateMutability": "view",
      "type": "function"
    },
    {
      "constant": true,
      "inputs": [],
      "name": "FIAT_PAYMENT_FUND_FUNCTION_CALL_GAS_USED",
      "outputs": [
        {
          "name": "",
          "type": "uint256"
        }
      ],
      "payable": false,
      "stateMutability": "view",
      "type": "function"
    },
    {
      "constant": true,
      "inputs": [
        {
          "name": "",
          "type": "address"
        }
      ],
      "name": "fundExecutors",
      "outputs": [
        {
          "name": "",
          "type": "bool"
        }
      ],
      "payable": false,
      "stateMutability": "view",
      "type": "function"
    },
    {
      "constant": true,
      "inputs": [],
      "name": "REFUNDING_LOGIC_GAS_COST",
      "outputs": [
        {
          "name": "",
          "type": "uint256"
        }
      ],
      "payable": false,
      "stateMutability": "view",
      "type": "function"
    },
    {
      "constant": true,
      "inputs": [],
      "name": "dAppAdmin",
      "outputs": [
        {
          "name": "",
          "type": "address"
        }
      ],
      "payable": false,
      "stateMutability": "view",
      "type": "function"
    },
    {
      "inputs": [
        {
          "name": "tokenAddress",
          "type": "address"
        },
        {
          "name": "_dAppAdmin",
          "type": "address"
        },
        {
          "name": "_fundExecutors",
          "type": "address[]"
        }
      ],
      "payable": false,
      "stateMutability": "nonpayable",
      "type": "constructor"
    },
    {
      "payable": true,
      "stateMutability": "payable",
      "type": "fallback"
    },
    {
      "constant": false,
      "inputs": [
        {
          "name": "nonce",
          "type": "uint256"
        },
        {
          "name": "gasprice",
          "type": "uint256"
        },
        {
          "name": "addressToFund",
          "type": "address"
        },
        {
          "name": "weiAmount",
          "type": "uint256"
        },
        {
          "name": "authorizationSignature",
          "type": "bytes"
        }
      ],
      "name": "fundForRelayedPayment",
      "outputs": [],
      "payable": false,
      "stateMutability": "nonpayable",
      "type": "function"
    },
    {
      "constant": false,
      "inputs": [
        {
          "name": "nonce",
          "type": "uint256"
        },
        {
          "name": "gasprice",
          "type": "uint256"
        },
        {
          "name": "addressToFund",
          "type": "address"
        },
        {
          "name": "weiAmount",
          "type": "uint256"
        },
        {
          "name": "tokenAmount",
          "type": "uint256"
        },
        {
          "name": "authorizationSignature",
          "type": "bytes"
        }
      ],
      "name": "fundForFiatPayment",
      "outputs": [],
      "payable": false,
      "stateMutability": "nonpayable",
      "type": "function"
    },
    {
      "constant": true,
      "inputs": [
        {
          "name": "raw",
          "type": "bytes32"
        },
        {
          "name": "sig",
          "type": "bytes"
        }
      ],
      "name": "getSigner",
      "outputs": [
        {
          "name": "signer",
          "type": "address"
        }
      ],
      "payable": false,
      "stateMutability": "pure",
      "type": "function"
    },
    {
      "constant": false,
      "inputs": [
        {
          "name": "ethersAmount",
          "type": "uint256"
        }
      ],
      "name": "withdrawEthers",
      "outputs": [],
      "payable": false,
      "stateMutability": "nonpayable",
      "type": "function"
    },
    {
      "constant": false,
      "inputs": [
        {
          "name": "tokensAmount",
          "type": "uint256"
        }
      ],
      "name": "withdrawTokens",
      "outputs": [],
      "payable": false,
      "stateMutability": "nonpayable",
      "type": "function"
    },
    {
      "constant": false,
      "inputs": [
        {
          "name": "_newSigner",
          "type": "address"
        },
        {
          "name": "add",
          "type": "bool"
        }
      ],
      "name": "editSigner",
      "outputs": [],
      "payable": false,
      "stateMutability": "nonpayable",
      "type": "function"
    },
    {
      "constant": false,
      "inputs": [
        {
          "name": "_dAppAdmin",
          "type": "address"
        }
      ],
      "name": "editDappAdmin",
      "outputs": [],
      "payable": false,
      "stateMutability": "nonpayable",
      "type": "function"
    },
    {
      "constant": false,
      "inputs": [
        {
          "name": "_newExecutor",
          "type": "address"
        },
        {
          "name": "add",
          "type": "bool"
        }
      ],
      "name": "editFundExecutor",
      "outputs": [],
      "payable": false,
      "stateMutability": "nonpayable",
      "type": "function"
    }
  ],
  "bytecode": "0x608060405234801561001057600080fd5b5060405162001bad38038062001bad8339810180604052606081101561003557600080fd5b810190808051906020019092919080519060200190929190805164010000000081111561006157600080fd5b8281019050602081018481111561007757600080fd5b815185602082028301116401000000008211171561009457600080fd5b505092919050505081600460006101000a81548173ffffffffffffffffffffffffffffffffffffffff021916908373ffffffffffffffffffffffffffffffffffffffff160217905550826000806101000a81548173ffffffffffffffffffffffffffffffffffffffff021916908373ffffffffffffffffffffffffffffffffffffffff16021790555060008090505b81518110156101a857600160026000848481518110151561014057fe5b9060200190602002015173ffffffffffffffffffffffffffffffffffffffff1673ffffffffffffffffffffffffffffffffffffffff16815260200190815260200160002060006101000a81548160ff0219169083151502179055508080600101915050610123565b505050506119f180620001bc6000396000f3fe6080604052600436106100e0576000357c0100000000000000000000000000000000000000000000000000000000900480630b06c634146100e25780631f6acc21146101f2578063315a095d146102f857806347bae6f51461033357806355a373d6146103905780636717e41c146103e7578063674478861461043a578063736c0d5b146104655780637d09e992146104ce5780638ad3308e146104f9578063c6ac068e1461054a578063cbdee551146105b3578063e46d5e29146105de578063f42067061461063b578063f69741a314610676578063f7b2ec0d146106cd575b005b3480156100ee57600080fd5b506101f0600480360360c081101561010557600080fd5b810190808035906020019092919080359060200190929190803573ffffffffffffffffffffffffffffffffffffffff16906020019092919080359060200190929190803590602001909291908035906020019064010000000081111561016a57600080fd5b82018360208201111561017c57600080fd5b8035906020019184600183028401116401000000008311171561019e57600080fd5b91908080601f016020809104026020016040519081016040528093929190818152602001838380828437600081840152601f19601f8201169050808301925050505050505091929192905050506107df565b005b3480156101fe57600080fd5b506102f6600480360360a081101561021557600080fd5b810190808035906020019092919080359060200190929190803573ffffffffffffffffffffffffffffffffffffffff169060200190929190803590602001909291908035906020019064010000000081111561027057600080fd5b82018360208201111561028257600080fd5b803590602001918460018302840111640100000000831117156102a457600080fd5b91908080601f016020809104026020016040519081016040528093929190818152602001838380828437600081840152601f19601f820116905080830192505050505050509192919290505050610c1f565b005b34801561030457600080fd5b506103316004803603602081101561031b57600080fd5b8101908080359060200190929190505050610f56565b005b34801561033f57600080fd5b5061038e6004803603604081101561035657600080fd5b81019080803573ffffffffffffffffffffffffffffffffffffffff169060200190929190803515159060200190929190505050611140565b005b34801561039c57600080fd5b506103a5611260565b604051808273ffffffffffffffffffffffffffffffffffffffff1673ffffffffffffffffffffffffffffffffffffffff16815260200191505060405180910390f35b3480156103f357600080fd5b506104206004803603602081101561040a57600080fd5b8101908080359060200190929190505050611285565b604051808215151515815260200191505060405180910390f35b34801561044657600080fd5b5061044f6112a5565b6040518082815260200191505060405180910390f35b34801561047157600080fd5b506104b46004803603602081101561048857600080fd5b81019080803573ffffffffffffffffffffffffffffffffffffffff1690602001909291905050506112ab565b604051808215151515815260200191505060405180910390f35b3480156104da57600080fd5b506104e36112cb565b6040518082815260200191505060405180910390f35b34801561050557600080fd5b506105486004803603602081101561051c57600080fd5b81019080803573ffffffffffffffffffffffffffffffffffffffff1690602001909291905050506112d1565b005b34801561055657600080fd5b506105996004803603602081101561056d57600080fd5b81019080803573ffffffffffffffffffffffffffffffffffffffff1690602001909291905050506113da565b604051808215151515815260200191505060405180910390f35b3480156105bf57600080fd5b506105c86113fa565b6040518082815260200191505060405180910390f35b3480156105ea57600080fd5b506106396004803603604081101561060157600080fd5b81019080803573ffffffffffffffffffffffffffffffffffffffff169060200190929190803515159060200190929190505050611400565b005b34801561064757600080fd5b506106746004803603602081101561065e57600080fd5b8101908080359060200190929190505050611520565b005b34801561068257600080fd5b5061068b611651565b604051808273ffffffffffffffffffffffffffffffffffffffff1673ffffffffffffffffffffffffffffffffffffffff16815260200191505060405180910390f35b3480156106d957600080fd5b5061079d600480360360408110156106f057600080fd5b81019080803590602001909291908035906020019064010000000081111561071757600080fd5b82018360208201111561072957600080fd5b8035906020019184600183028401116401000000008311171561074b57600080fd5b91908080601f016020809104026020016040519081016040528093929190818152602001838380828437600081840152601f19601f820116905080830192505050505050509192919290505050611677565b604051808273ffffffffffffffffffffffffffffffffffffffff1673ffffffffffffffffffffffffffffffffffffffff16815260200191505060405180910390f35b85856003600083815260200190815260200160002060009054906101000a900460ff16151515610877576040517f08c379a00000000000000000000000000000000000000000000000000000000081526004018080602001828103825260128152602001807f4e6f6e636520616c72656164792075736564000000000000000000000000000081525060200191505060405180910390fd5b3a81141515610914576040517f08c379a000000000000000000000000000000000000000000000000000000000815260040180806020018281038252602a8152602001807f47617320707269636520697320646966666572656e742066726f6d207468652081526020017f7369676e6564206f6e650000000000000000000000000000000000000000000081525060400191505060405180910390fd5b600260003373ffffffffffffffffffffffffffffffffffffffff1673ffffffffffffffffffffffffffffffffffffffff16815260200190815260200160002060009054906101000a900460ff1615156109d5576040517f08c379a00000000000000000000000000000000000000000000000000000000081526004018080602001828103825260138152602001807f556e617574686f72697a6564206163636573730000000000000000000000000081525060200191505060405180910390fd5b60006109ec61803f5a61179490919063ffffffff16565b9050600089308a8a8a8a604051602001808781526020018673ffffffffffffffffffffffffffffffffffffffff1673ffffffffffffffffffffffffffffffffffffffff166c010000000000000000000000000281526014018581526020018473ffffffffffffffffffffffffffffffffffffffff1673ffffffffffffffffffffffffffffffffffffffff166c010000000000000000000000000281526014018381526020018281526020019650505050505050604051602081830303815290604052805190602001209050610ac281868c6117b5565b6000809054906101000a900473ffffffffffffffffffffffffffffffffffffffff1673ffffffffffffffffffffffffffffffffffffffff1663a9059cbb89886040518363ffffffff167c0100000000000000000000000000000000000000000000000000000000028152600401808373ffffffffffffffffffffffffffffffffffffffff1673ffffffffffffffffffffffffffffffffffffffff16815260200182815260200192505050602060405180830381600087803b158015610b8657600080fd5b505af1158015610b9a573d6000803e3d6000fd5b505050506040513d6020811015610bb057600080fd5b8101908080519060200190929190505050508773ffffffffffffffffffffffffffffffffffffffff166108fc889081150290604051600060405180830381858888f19350505050158015610c08573d6000803e3d6000fd5b50610c13828a6118dc565b50505050505050505050565b84846003600083815260200190815260200160002060009054906101000a900460ff16151515610cb7576040517f08c379a00000000000000000000000000000000000000000000000000000000081526004018080602001828103825260128152602001807f4e6f6e636520616c72656164792075736564000000000000000000000000000081525060200191505060405180910390fd5b3a81141515610d54576040517f08c379a000000000000000000000000000000000000000000000000000000000815260040180806020018281038252602a8152602001807f47617320707269636520697320646966666572656e742066726f6d207468652081526020017f7369676e6564206f6e650000000000000000000000000000000000000000000081525060400191505060405180910390fd5b600260003373ffffffffffffffffffffffffffffffffffffffff1673ffffffffffffffffffffffffffffffffffffffff16815260200190815260200160002060009054906101000a900460ff161515610e15576040517f08c379a00000000000000000000000000000000000000000000000000000000081526004018080602001828103825260138152602001807f556e617574686f72697a6564206163636573730000000000000000000000000081525060200191505060405180910390fd5b6000610e2c617e435a61179490919063ffffffff16565b905060008830898989604051602001808681526020018573ffffffffffffffffffffffffffffffffffffffff1673ffffffffffffffffffffffffffffffffffffffff166c010000000000000000000000000281526014018481526020018373ffffffffffffffffffffffffffffffffffffffff1673ffffffffffffffffffffffffffffffffffffffff166c0100000000000000000000000002815260140182815260200195505050505050604051602081830303815290604052805190602001209050610efa81868b6117b5565b8673ffffffffffffffffffffffffffffffffffffffff166108fc879081150290604051600060405180830381858888f19350505050158015610f40573d6000803e3d6000fd5b50610f4b82896118dc565b505050505050505050565b600460009054906101000a900473ffffffffffffffffffffffffffffffffffffffff1673ffffffffffffffffffffffffffffffffffffffff163373ffffffffffffffffffffffffffffffffffffffff1614151561101b576040517f08c379a00000000000000000000000000000000000000000000000000000000081526004018080602001828103825260138152602001807f556e617574686f72697a6564206163636573730000000000000000000000000081525060200191505060405180910390fd5b6000809054906101000a900473ffffffffffffffffffffffffffffffffffffffff1673ffffffffffffffffffffffffffffffffffffffff1663a9059cbb600460009054906101000a900473ffffffffffffffffffffffffffffffffffffffff16836040518363ffffffff167c0100000000000000000000000000000000000000000000000000000000028152600401808373ffffffffffffffffffffffffffffffffffffffff1673ffffffffffffffffffffffffffffffffffffffff16815260200182815260200192505050602060405180830381600087803b15801561110157600080fd5b505af1158015611115573d6000803e3d6000fd5b505050506040513d602081101561112b57600080fd5b81019080805190602001909291905050505050565b600460009054906101000a900473ffffffffffffffffffffffffffffffffffffffff1673ffffffffffffffffffffffffffffffffffffffff163373ffffffffffffffffffffffffffffffffffffffff16141515611205576040517f08c379a00000000000000000000000000000000000000000000000000000000081526004018080602001828103825260138152602001807f556e617574686f72697a6564206163636573730000000000000000000000000081525060200191505060405180910390fd5b80600160008473ffffffffffffffffffffffffffffffffffffffff1673ffffffffffffffffffffffffffffffffffffffff16815260200190815260200160002060006101000a81548160ff0219169083151502179055505050565b6000809054906101000a900473ffffffffffffffffffffffffffffffffffffffff1681565b60036020528060005260406000206000915054906101000a900460ff1681565b617e4381565b60016020528060005260406000206000915054906101000a900460ff1681565b61803f81565b600460009054906101000a900473ffffffffffffffffffffffffffffffffffffffff1673ffffffffffffffffffffffffffffffffffffffff163373ffffffffffffffffffffffffffffffffffffffff16141515611396576040517f08c379a00000000000000000000000000000000000000000000000000000000081526004018080602001828103825260138152602001807f556e617574686f72697a6564206163636573730000000000000000000000000081525060200191505060405180910390fd5b80600460006101000a81548173ffffffffffffffffffffffffffffffffffffffff021916908373ffffffffffffffffffffffffffffffffffffffff16021790555050565b60026020528060005260406000206000915054906101000a900460ff1681565b611edd81565b600460009054906101000a900473ffffffffffffffffffffffffffffffffffffffff1673ffffffffffffffffffffffffffffffffffffffff163373ffffffffffffffffffffffffffffffffffffffff161415156114c5576040517f08c379a00000000000000000000000000000000000000000000000000000000081526004018080602001828103825260138152602001807f556e617574686f72697a6564206163636573730000000000000000000000000081525060200191505060405180910390fd5b80600260008473ffffffffffffffffffffffffffffffffffffffff1673ffffffffffffffffffffffffffffffffffffffff16815260200190815260200160002060006101000a81548160ff0219169083151502179055505050565b600460009054906101000a900473ffffffffffffffffffffffffffffffffffffffff1673ffffffffffffffffffffffffffffffffffffffff163373ffffffffffffffffffffffffffffffffffffffff161415156115e5576040517f08c379a00000000000000000000000000000000000000000000000000000000081526004018080602001828103825260138152602001807f556e617574686f72697a6564206163636573730000000000000000000000000081525060200191505060405180910390fd5b600460009054906101000a900473ffffffffffffffffffffffffffffffffffffffff1673ffffffffffffffffffffffffffffffffffffffff166108fc829081150290604051600060405180830381858888f1935050505015801561164d573d6000803e3d6000fd5b5050565b600460009054906101000a900473ffffffffffffffffffffffffffffffffffffffff1681565b600073__ECTools_______________________________63380388f184846040518363ffffffff167c01000000000000000000000000000000000000000000000000000000000281526004018083815260200180602001828103825283818151815260200191508051906020019080838360005b838110156117065780820151818401526020810190506116eb565b50505050905090810190601f1680156117335780820380516001836020036101000a031916815260200191505b50935050505060206040518083038186803b15801561175157600080fd5b505af4158015611765573d6000803e3d6000fd5b505050506040513d602081101561177b57600080fd5b8101908080519060200190929190505050905092915050565b60008082840190508381101515156117ab57600080fd5b8091505092915050565b60006117c18484611677565b9050600160008273ffffffffffffffffffffffffffffffffffffffff1673ffffffffffffffffffffffffffffffffffffffff16815260200190815260200160002060009054906101000a900460ff1615156118aa576040517f08c379a00000000000000000000000000000000000000000000000000000000081526004018080602001828103825260298152602001807f496e76616c696420617574686f72697a6174696f6e207369676e61747572652081526020017f6f72207369676e6572000000000000000000000000000000000000000000000081525060400191505060405180910390fd5b60016003600084815260200190815260200160002060006101000a81548160ff02191690831515021790555050505050565b600061191782611909611edd6118fb5a8861196590919063ffffffff16565b61179490919063ffffffff16565b61198790919063ffffffff16565b90503373ffffffffffffffffffffffffffffffffffffffff166108fc829081150290604051600060405180830381858888f1935050505015801561195f573d6000803e3d6000fd5b50505050565b600082821115151561197657600080fd5b600082840390508091505092915050565b60008083141561199a57600090506119bf565b600082840290508284828115156119ad57fe5b041415156119ba57600080fd5b809150505b9291505056fea165627a7a7230582016a78bf220408eead9975b1aa3b9009df899cb101fe19ac8858e2aa08f1078100029",
  "source": "pragma solidity 0.5.1;\n\nimport \"./ECTools.sol\";\nimport \"openzeppelin-solidity/contracts/math/SafeMath.sol\";\nimport \"openzeppelin-solidity/contracts/token/ERC20/ERC20.sol\";\n\n/**\n * @title Escrow_V3\n * @dev Escrow_V3 is the latest version of the escrow contract, currently being used for production\n */\ncontract Escrow_V3 {\n    using SafeMath for uint256;\n\n    ERC20 public tokenContract;\n\n    mapping (address => bool) public signers;\n    mapping (address => bool) public fundExecutors;\n    mapping (uint256 => bool) public usedNonces;\n\n    address payable public dAppAdmin;\n    uint256 constant public REFUNDING_LOGIC_GAS_COST = 7901; // gas used for single refund\n\n    uint256 constant public FIAT_PAYMENT_FUND_FUNCTION_CALL_GAS_USED = 32831; // approximated gas for calling fundForFiatPayment\n    uint256 constant public RELAYED_PAYMENT_FUND_FUNCTION_CALL_GAS_USED = 32323; // approximated gas for calling fundForRelayedPayment\n\n    /**\n    * @dev Restricts the access to a given function to the dApp admin only\n    */\n    modifier onlyDAppAdmin() {\n        require(msg.sender == dAppAdmin, \"Unauthorized access\");\n        _;\n    }\n\n    /**\n    * @dev Restricts the access to a given function to the fund executor only\n    */\n    modifier onlyFundExecutor() {\n        require(fundExecutors[msg.sender], \"Unauthorized access\");\n        _;\n    }\n\n    /**\n    * @dev Checks whether the nonce in the authorisation signature was already used. Prevents replay attacks.\n    */\n    modifier preValidateFund(uint256 nonce, uint256 gasprice) {\n        require(!usedNonces[nonce], \"Nonce already used\");\n        require(gasprice == tx.gasprice, \"Gas price is different from the signed one\");\n        _;\n    }\n\n    /**\n    * @dev The token address and the dappadmin are set on contract creation\n    */\n    constructor(address tokenAddress, address payable _dAppAdmin, address[] memory _fundExecutors) public {\n        dAppAdmin = _dAppAdmin;\n        tokenContract = ERC20(tokenAddress);\n        for (uint i = 0; i < _fundExecutors.length; i++) {\n            fundExecutors[_fundExecutors[i]] = true;\n        }\n    }\n   \n    /**\n    * @dev Funds the `addressToFund` with the proided `weiAmount`\n    * Signature from the dapp is used in order to authorize the funding\n    * The msg sender is refunded for the transaction costs\n    */\n    function fundForRelayedPayment(\n        uint256 nonce,\n        uint256 gasprice,\n        address payable addressToFund,\n        uint256 weiAmount,\n        bytes memory authorizationSignature) public preValidateFund(nonce, gasprice) onlyFundExecutor()\n    {\n        uint256 gasLimit = gasleft().add(RELAYED_PAYMENT_FUND_FUNCTION_CALL_GAS_USED);\n\n        bytes32 hashedParameters = keccak256(abi.encodePacked(nonce, address(this), gasprice, addressToFund, weiAmount));\n        _preFund(hashedParameters, authorizationSignature, nonce);\n\n        addressToFund.transfer(weiAmount);\n\n        _refundMsgSender(gasLimit, gasprice);\n    }\n\n    /**\n    * @dev Funds the `addressToFund` with the proided `weiAmount` and `tokenAmount`\n    * Signature from the dapp is used in order to authorize the funding\n    * The msg sender is refunded for the transaction costs\n    */\n    function fundForFiatPayment(\n        uint256 nonce,\n        uint256 gasprice,\n        address payable addressToFund,\n        uint256 weiAmount,\n        uint256 tokenAmount,\n        bytes memory authorizationSignature) public preValidateFund(nonce, gasprice) onlyFundExecutor()\n    {\n        uint256 gasLimit = gasleft().add(FIAT_PAYMENT_FUND_FUNCTION_CALL_GAS_USED);\n\n        bytes32 hashedParameters = keccak256(abi.encodePacked(nonce, address(this), gasprice, addressToFund, weiAmount, tokenAmount));\n        _preFund(hashedParameters, authorizationSignature, nonce);\n\n        tokenContract.transfer(addressToFund, tokenAmount);\n        addressToFund.transfer(weiAmount);\n\n        _refundMsgSender(gasLimit, gasprice);\n    }\n\n    /**\n    * @dev Recovers the signer and checks whether the person that signed the signature is whitelisted as `signer`. Marks the nonce as used\n    */\n    function _preFund(bytes32 hashedParameters, bytes memory authorizationSignature, uint256 nonce) internal {\n        address signer = getSigner(hashedParameters, authorizationSignature);\n        require(signers[signer], \"Invalid authorization signature or signer\");\n\n        usedNonces[nonce] = true;\n    }\n\n    /**\n    * @dev performs EC recover on the signature\n    */\n    function getSigner(bytes32 raw, bytes memory sig) public pure returns(address signer) {\n        return ECTools.prefixedRecover(raw, sig);\n    }\n\n    /**\n    * @dev refunds the msg sender for the transaction costs\n    */\n    function _refundMsgSender(uint256 gasLimit, uint256 gasprice) internal {\n        uint256 refundAmount = gasLimit.sub(gasleft()).add(REFUNDING_LOGIC_GAS_COST).mul(gasprice);\n        msg.sender.transfer(refundAmount);\n    }\n\n    /**\n    * @dev withdraws the ethers in the escrow contract. Performed only by the dAppAdmin\n    */\n    function withdrawEthers(uint256 ethersAmount) public onlyDAppAdmin {\n        dAppAdmin.transfer(ethersAmount);\n    }\n\n    /**\n    * @dev withdraws the tokens in the escrow contract. Performed only by the dAppAdmin\n    */\n    function withdrawTokens(uint256 tokensAmount) public onlyDAppAdmin {\n        tokenContract.transfer(dAppAdmin, tokensAmount);\n    }\n\n    /**\n    * @dev marks a given address as signer or not, depending on the second bool parameter. Performed only by the dAppAdmin\n    */\n    function editSigner(address _newSigner, bool add) public onlyDAppAdmin {\n        signers[_newSigner] = add;\n    }\n\n    /**\n    * @dev changes the dAppAdmin of the contract. Performed only by the dAppAdmin\n    */\n    function editDappAdmin (address payable _dAppAdmin) public onlyDAppAdmin {\n        dAppAdmin = _dAppAdmin;\n    }\n\n    /**\n    * @dev marks a given address as fund executor or not, depending on the second bool parameter. Performed only by the dAppAdmin\n    */\n    function editFundExecutor(address _newExecutor, bool add) public onlyDAppAdmin {\n        fundExecutors[_newExecutor] = add;\n    }\n\n    function() external payable {}\n}",
  "sourcePath": "/Users/danielivanov/work/limepay/smart-contracts/contracts/Escrow_V3.sol",
  "compiler": {
    "name": "solc",
    "version": "0.5.1+commit.c8a2cb62.Emscripten.clang"
  },
  "schemaVersion": "1.1.1",
  "updatedAt": "2019-05-21T07:52:39.662Z"
}