{
  "contractName": "Escrow_V3",
  "abi": [
    {
      "constant": true,
      "inputs": [],
      "name": "tokenContract",
      "outputs": [
        {
          "name": "",
          "type": "address"
        }
      ],
      "payable": false,
      "stateMutability": "view",
      "type": "function"
    },
    {
      "constant": true,
      "inputs": [
        {
          "name": "",
          "type": "uint256"
        }
      ],
      "name": "usedNonces",
      "outputs": [
        {
          "name": "",
          "type": "bool"
        }
      ],
      "payable": false,
      "stateMutability": "view",
      "type": "function"
    },
    {
      "constant": true,
      "inputs": [],
      "name": "RELAYED_PAYMENT_FUND_FUNCTION_CALL_GAS_USED",
      "outputs": [
        {
          "name": "",
          "type": "uint256"
        }
      ],
      "payable": false,
      "stateMutability": "view",
      "type": "function"
    },
    {
      "constant": true,
      "inputs": [
        {
          "name": "",
          "type": "address"
        }
      ],
      "name": "signers",
      "outputs": [
        {
          "name": "",
          "type": "bool"
        }
      ],
      "payable": false,
      "stateMutability": "view",
      "type": "function"
    },
    {
      "constant": true,
      "inputs": [],
      "name": "FIAT_PAYMENT_FUND_FUNCTION_CALL_GAS_USED",
      "outputs": [
        {
          "name": "",
          "type": "uint256"
        }
      ],
      "payable": false,
      "stateMutability": "view",
      "type": "function"
    },
    {
      "constant": true,
      "inputs": [],
      "name": "REFUNDING_LOGIC_GAS_COST",
      "outputs": [
        {
          "name": "",
          "type": "uint256"
        }
      ],
      "payable": false,
      "stateMutability": "view",
      "type": "function"
    },
    {
      "constant": true,
      "inputs": [],
      "name": "dAppAdmin",
      "outputs": [
        {
          "name": "",
          "type": "address"
        }
      ],
      "payable": false,
      "stateMutability": "view",
      "type": "function"
    },
    {
      "inputs": [
        {
          "name": "tokenAddress",
          "type": "address"
        },
        {
          "name": "_dAppAdmin",
          "type": "address"
        }
      ],
      "payable": false,
      "stateMutability": "nonpayable",
      "type": "constructor"
    },
    {
      "payable": true,
      "stateMutability": "payable",
      "type": "fallback"
    },
    {
      "constant": false,
      "inputs": [
        {
          "name": "nonce",
          "type": "uint256"
        },
        {
          "name": "gasprice",
          "type": "uint256"
        },
        {
          "name": "addressToFund",
          "type": "address"
        },
        {
          "name": "weiAmount",
          "type": "uint256"
        },
        {
          "name": "authorizationSignature",
          "type": "bytes"
        }
      ],
      "name": "fundForRelayedPayment",
      "outputs": [],
      "payable": false,
      "stateMutability": "nonpayable",
      "type": "function"
    },
    {
      "constant": false,
      "inputs": [
        {
          "name": "nonce",
          "type": "uint256"
        },
        {
          "name": "gasprice",
          "type": "uint256"
        },
        {
          "name": "addressToFund",
          "type": "address"
        },
        {
          "name": "weiAmount",
          "type": "uint256"
        },
        {
          "name": "tokenAmount",
          "type": "uint256"
        },
        {
          "name": "authorizationSignature",
          "type": "bytes"
        }
      ],
      "name": "fundForFiatPayment",
      "outputs": [],
      "payable": false,
      "stateMutability": "nonpayable",
      "type": "function"
    },
    {
      "constant": true,
      "inputs": [
        {
          "name": "raw",
          "type": "bytes32"
        },
        {
          "name": "sig",
          "type": "bytes"
        }
      ],
      "name": "getSigner",
      "outputs": [
        {
          "name": "signer",
          "type": "address"
        }
      ],
      "payable": false,
      "stateMutability": "pure",
      "type": "function"
    },
    {
      "constant": false,
      "inputs": [
        {
          "name": "ethersAmount",
          "type": "uint256"
        }
      ],
      "name": "withdrawEthers",
      "outputs": [],
      "payable": false,
      "stateMutability": "nonpayable",
      "type": "function"
    },
    {
      "constant": false,
      "inputs": [
        {
          "name": "tokensAmount",
          "type": "uint256"
        }
      ],
      "name": "withdrawTokens",
      "outputs": [],
      "payable": false,
      "stateMutability": "nonpayable",
      "type": "function"
    },
    {
      "constant": false,
      "inputs": [
        {
          "name": "_newSigner",
          "type": "address"
        },
        {
          "name": "add",
          "type": "bool"
        }
      ],
      "name": "editSigner",
      "outputs": [],
      "payable": false,
      "stateMutability": "nonpayable",
      "type": "function"
    },
    {
      "constant": false,
      "inputs": [
        {
          "name": "_dAppAdmin",
          "type": "address"
        }
      ],
      "name": "editDappAdmin",
      "outputs": [],
      "payable": false,
      "stateMutability": "nonpayable",
      "type": "function"
    }
  ],
  "bytecode": "0x608060405234801561001057600080fd5b506040516040806115f28339810180604052604081101561003057600080fd5b81019080805190602001909291908051906020019092919050505080600360006101000a81548173ffffffffffffffffffffffffffffffffffffffff021916908373ffffffffffffffffffffffffffffffffffffffff160217905550816000806101000a81548173ffffffffffffffffffffffffffffffffffffffff021916908373ffffffffffffffffffffffffffffffffffffffff1602179055505050611515806100dd6000396000f3fe6080604052600436106100ca576000357c0100000000000000000000000000000000000000000000000000000000900480630b06c634146100cc5780631f6acc21146101dc578063315a095d146102e257806347bae6f51461031d57806355a373d61461037a5780636717e41c146103d15780636744788614610424578063736c0d5b1461044f5780637d09e992146104b85780638ad3308e146104e3578063cbdee55114610534578063f42067061461055f578063f69741a31461059a578063f7b2ec0d146105f1575b005b3480156100d857600080fd5b506101da600480360360c08110156100ef57600080fd5b810190808035906020019092919080359060200190929190803573ffffffffffffffffffffffffffffffffffffffff16906020019092919080359060200190929190803590602001909291908035906020019064010000000081111561015457600080fd5b82018360208201111561016657600080fd5b8035906020019184600183028401116401000000008311171561018857600080fd5b91908080601f016020809104026020016040519081016040528093929190818152602001838380828437600081840152601f19601f820116905080830192505050505050509192919290505050610703565b005b3480156101e857600080fd5b506102e0600480360360a08110156101ff57600080fd5b810190808035906020019092919080359060200190929190803573ffffffffffffffffffffffffffffffffffffffff169060200190929190803590602001909291908035906020019064010000000081111561025a57600080fd5b82018360208201111561026c57600080fd5b8035906020019184600183028401116401000000008311171561028e57600080fd5b91908080601f016020809104026020016040519081016040528093929190818152602001838380828437600081840152601f19601f8201169050808301925050505050505091929192905050506109e3565b005b3480156102ee57600080fd5b5061031b6004803603602081101561030557600080fd5b8101908080359060200190929190505050610bba565b005b34801561032957600080fd5b506103786004803603604081101561034057600080fd5b81019080803573ffffffffffffffffffffffffffffffffffffffff169060200190929190803515159060200190929190505050610da4565b005b34801561038657600080fd5b5061038f610ec4565b604051808273ffffffffffffffffffffffffffffffffffffffff1673ffffffffffffffffffffffffffffffffffffffff16815260200191505060405180910390f35b3480156103dd57600080fd5b5061040a600480360360208110156103f457600080fd5b8101908080359060200190929190505050610ee9565b604051808215151515815260200191505060405180910390f35b34801561043057600080fd5b50610439610f09565b6040518082815260200191505060405180910390f35b34801561045b57600080fd5b5061049e6004803603602081101561047257600080fd5b81019080803573ffffffffffffffffffffffffffffffffffffffff169060200190929190505050610f0f565b604051808215151515815260200191505060405180910390f35b3480156104c457600080fd5b506104cd610f2f565b6040518082815260200191505060405180910390f35b3480156104ef57600080fd5b506105326004803603602081101561050657600080fd5b81019080803573ffffffffffffffffffffffffffffffffffffffff169060200190929190505050610f35565b005b34801561054057600080fd5b5061054961103e565b6040518082815260200191505060405180910390f35b34801561056b57600080fd5b506105986004803603602081101561058257600080fd5b8101908080359060200190929190505050611044565b005b3480156105a657600080fd5b506105af611175565b604051808273ffffffffffffffffffffffffffffffffffffffff1673ffffffffffffffffffffffffffffffffffffffff16815260200191505060405180910390f35b3480156105fd57600080fd5b506106c16004803603604081101561061457600080fd5b81019080803590602001909291908035906020019064010000000081111561063b57600080fd5b82018360208201111561064d57600080fd5b8035906020019184600183028401116401000000008311171561066f57600080fd5b91908080601f016020809104026020016040519081016040528093929190818152602001838380828437600081840152601f19601f82011690508083019250505050505050919291929050505061119b565b604051808273ffffffffffffffffffffffffffffffffffffffff1673ffffffffffffffffffffffffffffffffffffffff16815260200191505060405180910390f35b856002600082815260200190815260200160002060009054906101000a900460ff1615151561079a576040517f08c379a00000000000000000000000000000000000000000000000000000000081526004018080602001828103825260128152602001807f4e6f6e636520616c72656164792075736564000000000000000000000000000081525060200191505060405180910390fd5b60006107b1617de75a6112b890919063ffffffff16565b90506000883089898989604051602001808781526020018673ffffffffffffffffffffffffffffffffffffffff1673ffffffffffffffffffffffffffffffffffffffff166c010000000000000000000000000281526014018581526020018473ffffffffffffffffffffffffffffffffffffffff1673ffffffffffffffffffffffffffffffffffffffff166c01000000000000000000000000028152601401838152602001828152602001965050505050505060405160208183030381529060405280519060200120905061088781858b6112d9565b6000809054906101000a900473ffffffffffffffffffffffffffffffffffffffff1673ffffffffffffffffffffffffffffffffffffffff1663a9059cbb88876040518363ffffffff167c0100000000000000000000000000000000000000000000000000000000028152600401808373ffffffffffffffffffffffffffffffffffffffff1673ffffffffffffffffffffffffffffffffffffffff16815260200182815260200192505050602060405180830381600087803b15801561094b57600080fd5b505af115801561095f573d6000803e3d6000fd5b505050506040513d602081101561097557600080fd5b8101908080519060200190929190505050508673ffffffffffffffffffffffffffffffffffffffff166108fc879081150290604051600060405180830381858888f193505050501580156109cd573d6000803e3d6000fd5b506109d88289611400565b505050505050505050565b846002600082815260200190815260200160002060009054906101000a900460ff16151515610a7a576040517f08c379a00000000000000000000000000000000000000000000000000000000081526004018080602001828103825260128152602001807f4e6f6e636520616c72656164792075736564000000000000000000000000000081525060200191505060405180910390fd5b6000610a91617beb5a6112b890919063ffffffff16565b905060008730888888604051602001808681526020018573ffffffffffffffffffffffffffffffffffffffff1673ffffffffffffffffffffffffffffffffffffffff166c010000000000000000000000000281526014018481526020018373ffffffffffffffffffffffffffffffffffffffff1673ffffffffffffffffffffffffffffffffffffffff166c0100000000000000000000000002815260140182815260200195505050505050604051602081830303815290604052805190602001209050610b5f81858a6112d9565b8573ffffffffffffffffffffffffffffffffffffffff166108fc869081150290604051600060405180830381858888f19350505050158015610ba5573d6000803e3d6000fd5b50610bb08288611400565b5050505050505050565b600360009054906101000a900473ffffffffffffffffffffffffffffffffffffffff1673ffffffffffffffffffffffffffffffffffffffff163373ffffffffffffffffffffffffffffffffffffffff16141515610c7f576040517f08c379a00000000000000000000000000000000000000000000000000000000081526004018080602001828103825260138152602001807f556e617574686f72697a6564206163636573730000000000000000000000000081525060200191505060405180910390fd5b6000809054906101000a900473ffffffffffffffffffffffffffffffffffffffff1673ffffffffffffffffffffffffffffffffffffffff1663a9059cbb600360009054906101000a900473ffffffffffffffffffffffffffffffffffffffff16836040518363ffffffff167c0100000000000000000000000000000000000000000000000000000000028152600401808373ffffffffffffffffffffffffffffffffffffffff1673ffffffffffffffffffffffffffffffffffffffff16815260200182815260200192505050602060405180830381600087803b158015610d6557600080fd5b505af1158015610d79573d6000803e3d6000fd5b505050506040513d6020811015610d8f57600080fd5b81019080805190602001909291905050505050565b600360009054906101000a900473ffffffffffffffffffffffffffffffffffffffff1673ffffffffffffffffffffffffffffffffffffffff163373ffffffffffffffffffffffffffffffffffffffff16141515610e69576040517f08c379a00000000000000000000000000000000000000000000000000000000081526004018080602001828103825260138152602001807f556e617574686f72697a6564206163636573730000000000000000000000000081525060200191505060405180910390fd5b80600160008473ffffffffffffffffffffffffffffffffffffffff1673ffffffffffffffffffffffffffffffffffffffff16815260200190815260200160002060006101000a81548160ff0219169083151502179055505050565b6000809054906101000a900473ffffffffffffffffffffffffffffffffffffffff1681565b60026020528060005260406000206000915054906101000a900460ff1681565b617beb81565b60016020528060005260406000206000915054906101000a900460ff1681565b617de781565b600360009054906101000a900473ffffffffffffffffffffffffffffffffffffffff1673ffffffffffffffffffffffffffffffffffffffff163373ffffffffffffffffffffffffffffffffffffffff16141515610ffa576040517f08c379a00000000000000000000000000000000000000000000000000000000081526004018080602001828103825260138152602001807f556e617574686f72697a6564206163636573730000000000000000000000000081525060200191505060405180910390fd5b80600360006101000a81548173ffffffffffffffffffffffffffffffffffffffff021916908373ffffffffffffffffffffffffffffffffffffffff16021790555050565b611edd81565b600360009054906101000a900473ffffffffffffffffffffffffffffffffffffffff1673ffffffffffffffffffffffffffffffffffffffff163373ffffffffffffffffffffffffffffffffffffffff16141515611109576040517f08c379a00000000000000000000000000000000000000000000000000000000081526004018080602001828103825260138152602001807f556e617574686f72697a6564206163636573730000000000000000000000000081525060200191505060405180910390fd5b600360009054906101000a900473ffffffffffffffffffffffffffffffffffffffff1673ffffffffffffffffffffffffffffffffffffffff166108fc829081150290604051600060405180830381858888f19350505050158015611171573d6000803e3d6000fd5b5050565b600360009054906101000a900473ffffffffffffffffffffffffffffffffffffffff1681565b600073__ECTools_______________________________63380388f184846040518363ffffffff167c01000000000000000000000000000000000000000000000000000000000281526004018083815260200180602001828103825283818151815260200191508051906020019080838360005b8381101561122a57808201518184015260208101905061120f565b50505050905090810190601f1680156112575780820380516001836020036101000a031916815260200191505b50935050505060206040518083038186803b15801561127557600080fd5b505af4158015611289573d6000803e3d6000fd5b505050506040513d602081101561129f57600080fd5b8101908080519060200190929190505050905092915050565b60008082840190508381101515156112cf57600080fd5b8091505092915050565b60006112e5848461119b565b9050600160008273ffffffffffffffffffffffffffffffffffffffff1673ffffffffffffffffffffffffffffffffffffffff16815260200190815260200160002060009054906101000a900460ff1615156113ce576040517f08c379a00000000000000000000000000000000000000000000000000000000081526004018080602001828103825260298152602001807f496e76616c696420617574686f72697a6174696f6e207369676e61747572652081526020017f6f72207369676e6572000000000000000000000000000000000000000000000081525060400191505060405180910390fd5b60016002600084815260200190815260200160002060006101000a81548160ff02191690831515021790555050505050565b600061143b8261142d611edd61141f5a8861148990919063ffffffff16565b6112b890919063ffffffff16565b6114ab90919063ffffffff16565b90503373ffffffffffffffffffffffffffffffffffffffff166108fc829081150290604051600060405180830381858888f19350505050158015611483573d6000803e3d6000fd5b50505050565b600082821115151561149a57600080fd5b600082840390508091505092915050565b6000808314156114be57600090506114e3565b600082840290508284828115156114d157fe5b041415156114de57600080fd5b809150505b9291505056fea165627a7a723058209c900d9bacb9443e59e044be0a186e5d64e4fe591ecfb66d2bd726c5e39231e30029",
  "source": "pragma solidity 0.5.1;\n\nimport \"./ECTools.sol\";\nimport \"openzeppelin-solidity/contracts/math/SafeMath.sol\";\nimport \"openzeppelin-solidity/contracts/token/ERC20/ERC20.sol\";\n\n/**\n * @title Escrow_V3\n * @dev Escrow_V3 is the latest version of the escrow contract, currently being used for production \n */\ncontract Escrow_V3 {\n    using SafeMath for uint256;\n\n    ERC20 public tokenContract;\n\n    mapping (address => bool) public signers;\n    mapping (uint256 => bool) public usedNonces;\n\n    address payable public dAppAdmin;\n    uint256 constant public REFUNDING_LOGIC_GAS_COST = 7901; // gas used for single refund \n\n    uint256 constant public FIAT_PAYMENT_FUND_FUNCTION_CALL_GAS_USED = 32231; // approximated gas for calling fundForFiatPayment\n    uint256 constant public RELAYED_PAYMENT_FUND_FUNCTION_CALL_GAS_USED = 31723; // approximated gas for calling fundForRelayedPayment\n\n    /**\n    * @dev Restricts the access to a given function to the dApp admin only \n    */\n    modifier onlyDAppAdmin() {\n        require(msg.sender == dAppAdmin, \"Unauthorized access\"); \n        _;\n    }\n\n    /**\n    * @dev Checks whether the nonce in the authorisation signature was already used. Prevents replay attacks.\n    */\n    modifier preValidateFund(uint256 nonce) {\n        require(!usedNonces[nonce], \"Nonce already used\");\n        _;\n    }\n\n    /**\n    * @dev The token address and the dappadmin are set on contract creation\n    */\n    constructor(address tokenAddress, address payable _dAppAdmin) public {\n        dAppAdmin = _dAppAdmin;   \n        tokenContract = ERC20(tokenAddress); \n    }\n   \n    /**\n    * @dev Funds the `addressToFund` with the proided `weiAmount`\n    * Signature from the dapp is used in order to authorize the funding\n    * The msg sender is refunded for the transaction costs \n    */\n    function fundForRelayedPayment(\n        uint256 nonce,\n        uint256 gasprice,\n        address payable addressToFund,\n        uint256 weiAmount,\n        bytes memory authorizationSignature) public preValidateFund(nonce)\n    {\n        uint256 gasLimit = gasleft().add(RELAYED_PAYMENT_FUND_FUNCTION_CALL_GAS_USED);\n        \n        bytes32 hashedParameters = keccak256(abi.encodePacked(nonce, address(this), gasprice, addressToFund, weiAmount));\n        _preFund(hashedParameters, authorizationSignature, nonce);\n\n        addressToFund.transfer(weiAmount);\n\n        _refundMsgSender(gasLimit, gasprice);\n    }\n\n    /**\n    * @dev Funds the `addressToFund` with the proided `weiAmount` and `tokenAmount`\n    * Signature from the dapp is used in order to authorize the funding\n    * The msg sender is refunded for the transaction costs \n    */\n    function fundForFiatPayment(\n        uint256 nonce,\n        uint256 gasprice,\n        address payable addressToFund,\n        uint256 weiAmount,\n        uint256 tokenAmount,\n        bytes memory authorizationSignature) public preValidateFund(nonce)\n    {\n        uint256 gasLimit = gasleft().add(FIAT_PAYMENT_FUND_FUNCTION_CALL_GAS_USED);\n\n        bytes32 hashedParameters = keccak256(abi.encodePacked(nonce, address(this), gasprice, addressToFund, weiAmount, tokenAmount));\n        _preFund(hashedParameters, authorizationSignature, nonce);\n\n        tokenContract.transfer(addressToFund, tokenAmount);\n        addressToFund.transfer(weiAmount);\n\n        _refundMsgSender(gasLimit, gasprice);\n    }\n\n    /**\n    * @dev Recovers the signer and checks whether the person that signed the signature is whitelisted as `signer`. Marks the nonce as used\n    */\n    function _preFund(bytes32 hashedParameters, bytes memory authorizationSignature, uint256 nonce) internal {\n        address signer = getSigner(hashedParameters, authorizationSignature);\n        require(signers[signer], \"Invalid authorization signature or signer\");\n        \n        usedNonces[nonce] = true;\n    }\n\n    /**\n    * @dev performs EC recover on the signature\n    */\n    function getSigner(bytes32 raw, bytes memory sig) public pure returns(address signer) {\n        return ECTools.prefixedRecover(raw, sig);\n    }\n\n    /**\n    * @dev refunds the msg sender for the transaction costs\n    */\n    function _refundMsgSender(uint256 gasLimit, uint256 gasprice) internal {\n        uint256 refundAmount = gasLimit.sub(gasleft()).add(REFUNDING_LOGIC_GAS_COST).mul(gasprice);\n        msg.sender.transfer(refundAmount);\n    }\n\n    /**\n    * @dev withdraws the ethers in the escrow contract. Performed only by the dAppAdmin\n    */\n    function withdrawEthers(uint256 ethersAmount) public onlyDAppAdmin {\n        dAppAdmin.transfer(ethersAmount);\n    }\n\n    /**\n    * @dev withdraws the tokens in the escrow contract. Performed only by the dAppAdmin\n    */\n    function withdrawTokens(uint256 tokensAmount) public onlyDAppAdmin {\n        tokenContract.transfer(dAppAdmin, tokensAmount);\n    }\n\n    /**\n    * @dev marks a given address as signer or not, depending on the second bool parameter. Performed only by the dAppAdmin\n    */\n    function editSigner(address _newSigner, bool add) public onlyDAppAdmin {\n        signers[_newSigner] = add;\n    }\n\n    /**\n    * @dev changes the dAppAdmin of the contract. Performed only by the dAppAdmin\n    */\n    function editDappAdmin (address payable _dAppAdmin) public onlyDAppAdmin {\n        dAppAdmin = _dAppAdmin;\n    }\n\n    function() external payable {}\n}",
  "sourcePath": "/Users/danielivanov/work/limepay/smart-contracts/contracts/Escrow_V3.sol",
  "compiler": {
    "name": "solc",
    "version": "0.5.1+commit.c8a2cb62.Emscripten.clang"
  },
  "schemaVersion": "1.1.0",
  "updatedAt": "2019-04-16T13:45:25.039Z"
}